{
  "contractName": "Vision",
  "abi": [
    {
      "inputs": [],
      "stateMutability": "nonpayable",
      "type": "constructor"
    },
    {
      "anonymous": false,
      "inputs": [
        {
          "indexed": true,
          "internalType": "address",
          "name": "owner",
          "type": "address"
        },
        {
          "indexed": true,
          "internalType": "address",
          "name": "spender",
          "type": "address"
        },
        {
          "indexed": false,
          "internalType": "uint256",
          "name": "value",
          "type": "uint256"
        }
      ],
      "name": "Approval",
      "type": "event"
    },
    {
      "anonymous": false,
      "inputs": [
        {
          "indexed": true,
          "internalType": "address",
          "name": "from",
          "type": "address"
        },
        {
          "indexed": true,
          "internalType": "address",
          "name": "to",
          "type": "address"
        },
        {
          "indexed": false,
          "internalType": "uint256",
          "name": "value",
          "type": "uint256"
        }
      ],
      "name": "Transfer",
      "type": "event"
    },
    {
      "inputs": [],
      "name": "_totalSupply",
      "outputs": [
        {
          "internalType": "uint256",
          "name": "",
          "type": "uint256"
        }
      ],
      "stateMutability": "view",
      "type": "function"
    },
    {
      "inputs": [],
      "name": "decimals",
      "outputs": [
        {
          "internalType": "uint8",
          "name": "",
          "type": "uint8"
        }
      ],
      "stateMutability": "view",
      "type": "function"
    },
    {
      "inputs": [
        {
          "internalType": "address",
          "name": "spender",
          "type": "address"
        },
        {
          "internalType": "uint256",
          "name": "subtractedValue",
          "type": "uint256"
        }
      ],
      "name": "decreaseAllowance",
      "outputs": [
        {
          "internalType": "bool",
          "name": "",
          "type": "bool"
        }
      ],
      "stateMutability": "nonpayable",
      "type": "function"
    },
    {
      "inputs": [
        {
          "internalType": "address",
          "name": "spender",
          "type": "address"
        },
        {
          "internalType": "uint256",
          "name": "addedValue",
          "type": "uint256"
        }
      ],
      "name": "increaseAllowance",
      "outputs": [
        {
          "internalType": "bool",
          "name": "",
          "type": "bool"
        }
      ],
      "stateMutability": "nonpayable",
      "type": "function"
    },
    {
      "inputs": [],
      "name": "name",
      "outputs": [
        {
          "internalType": "string",
          "name": "",
          "type": "string"
        }
      ],
      "stateMutability": "view",
      "type": "function"
    },
    {
      "inputs": [],
      "name": "symbol",
      "outputs": [
        {
          "internalType": "string",
          "name": "",
          "type": "string"
        }
      ],
      "stateMutability": "view",
      "type": "function"
    },
    {
      "inputs": [],
      "name": "totalSupply",
      "outputs": [
        {
          "internalType": "uint256",
          "name": "",
          "type": "uint256"
        }
      ],
      "stateMutability": "view",
      "type": "function"
    },
    {
      "inputs": [
        {
          "internalType": "address",
          "name": "tokenOwner",
          "type": "address"
        }
      ],
      "name": "balanceOf",
      "outputs": [
        {
          "internalType": "uint256",
          "name": "balance",
          "type": "uint256"
        }
      ],
      "stateMutability": "view",
      "type": "function"
    },
    {
      "inputs": [
        {
          "internalType": "address",
          "name": "tokenOwner",
          "type": "address"
        },
        {
          "internalType": "address",
          "name": "spender",
          "type": "address"
        }
      ],
      "name": "allowance",
      "outputs": [
        {
          "internalType": "uint256",
          "name": "remaining",
          "type": "uint256"
        }
      ],
      "stateMutability": "view",
      "type": "function"
    },
    {
      "inputs": [
        {
          "internalType": "address",
          "name": "spender",
          "type": "address"
        },
        {
          "internalType": "uint256",
          "name": "tokens",
          "type": "uint256"
        }
      ],
      "name": "approve",
      "outputs": [
        {
          "internalType": "bool",
          "name": "success",
          "type": "bool"
        }
      ],
      "stateMutability": "nonpayable",
      "type": "function"
    },
    {
      "inputs": [
        {
          "internalType": "address",
          "name": "to",
          "type": "address"
        },
        {
          "internalType": "uint256",
          "name": "tokens",
          "type": "uint256"
        }
      ],
      "name": "transfer",
      "outputs": [
        {
          "internalType": "bool",
          "name": "success",
          "type": "bool"
        }
      ],
      "stateMutability": "nonpayable",
      "type": "function"
    },
    {
      "inputs": [
        {
          "internalType": "address",
          "name": "from",
          "type": "address"
        },
        {
          "internalType": "address",
          "name": "to",
          "type": "address"
        },
        {
          "internalType": "uint256",
          "name": "tokens",
          "type": "uint256"
        }
      ],
      "name": "transferFrom",
      "outputs": [
        {
          "internalType": "bool",
          "name": "success",
          "type": "bool"
        }
      ],
      "stateMutability": "nonpayable",
      "type": "function"
    }
  ],
  "bytecode": "0x6080604052730d9494732ae5997c46b177a2165926691bd6b930600960006101000a81548173ffffffffffffffffffffffffffffffffffffffff021916908373ffffffffffffffffffffffffffffffffffffffff1602179055503480156200006657600080fd5b506040518060400160405280600681526020017f564953494f4e00000000000000000000000000000000000000000000000000008152506040518060400160405280600481526020017f56495349000000000000000000000000000000000000000000000000000000008152508160039080519060200190620000eb929190620001e6565b50806004908051906020019062000104929190620001e6565b505050600a600560006101000a81548160ff021916908360ff1602179055506509184e72a000600681905550600654600760003373ffffffffffffffffffffffffffffffffffffffff1673ffffffffffffffffffffffffffffffffffffffff168152602001908152602001600020819055503373ffffffffffffffffffffffffffffffffffffffff16600073ffffffffffffffffffffffffffffffffffffffff167fddf252ad1be2c89b69c2b068fc378daa952ba7f163c4a11628f55a4df523b3ef600654604051620001d89190620002b1565b60405180910390a362000333565b828054620001f490620002fd565b90600052602060002090601f01602090048101928262000218576000855562000264565b82601f106200023357805160ff191683800117855562000264565b8280016001018555821562000264579182015b828111156200026357825182559160200191906001019062000246565b5b50905062000273919062000277565b5090565b5b808211156200029257600081600090555060010162000278565b5090565b6000819050919050565b620002ab8162000296565b82525050565b6000602082019050620002c86000830184620002a0565b92915050565b7f4e487b7100000000000000000000000000000000000000000000000000000000600052602260045260246000fd5b600060028204905060018216806200031657607f821691505b602082108114156200032d576200032c620002ce565b5b50919050565b61138380620003436000396000f3fe608060405234801561001057600080fd5b50600436106100d1576000357c0100000000000000000000000000000000000000000000000000000000900480633eaaf86b1161008e5780633eaaf86b146101c057806370a08231146101de57806395d89b411461020e578063a457c2d71461022c578063a9059cbb1461025c578063dd62ed3e1461028c576100d1565b806306fdde03146100d6578063095ea7b3146100f457806318160ddd1461012457806323b872dd14610142578063313ce567146101725780633950935114610190575b600080fd5b6100de6102bc565b6040516100eb9190610e2b565b60405180910390f35b61010e60048036038101906101099190610ee6565b61034e565b60405161011b9190610f41565b60405180910390f35b61012c610440565b6040516101399190610f6b565b60405180910390f35b61015c60048036038101906101579190610f86565b610494565b6040516101699190610f41565b60405180910390f35b61017a61072a565b6040516101879190610ff5565b60405180910390f35b6101aa60048036038101906101a59190610ee6565b610733565b6040516101b79190610f41565b60405180910390f35b6101c86107df565b6040516101d59190610f6b565b60405180910390f35b6101f860048036038101906101f39190611010565b6107e5565b6040516102059190610f6b565b60405180910390f35b61021661082e565b6040516102239190610e2b565b60405180910390f35b61024660048036038101906102419190610ee6565b6108c0565b6040516102539190610f41565b60405180910390f35b61027660048036038101906102719190610ee6565b6109ab565b6040516102839190610f41565b60405180910390f35b6102a660048036038101906102a1919061103d565b610b38565b6040516102b39190610f6b565b60405180910390f35b6060600380546102cb906110ac565b80601f01602080910402602001604051908101604052809291908181526020018280546102f7906110ac565b80156103445780601f1061031957610100808354040283529160200191610344565b820191906000526020600020905b81548152906001019060200180831161032757829003601f168201915b5050505050905090565b600081600860003373ffffffffffffffffffffffffffffffffffffffff1673ffffffffffffffffffffffffffffffffffffffff16815260200190815260200160002060008573ffffffffffffffffffffffffffffffffffffffff1673ffffffffffffffffffffffffffffffffffffffff168152602001908152602001600020819055508273ffffffffffffffffffffffffffffffffffffffff163373ffffffffffffffffffffffffffffffffffffffff167f8c5be1e5ebec7d5bd14f71427d1e84f3dd0314c0f7b2291e5b200ac8c7c3b9258460405161042e9190610f6b565b60405180910390a36001905092915050565b6000600760008073ffffffffffffffffffffffffffffffffffffffff1673ffffffffffffffffffffffffffffffffffffffff1681526020019081526020016000205460065461048f919061110d565b905090565b600081600760008673ffffffffffffffffffffffffffffffffffffffff1673ffffffffffffffffffffffffffffffffffffffff168152602001908152602001600020546104e1919061110d565b600760008673ffffffffffffffffffffffffffffffffffffffff1673ffffffffffffffffffffffffffffffffffffffff1681526020019081526020016000208190555081600860008673ffffffffffffffffffffffffffffffffffffffff1673ffffffffffffffffffffffffffffffffffffffff16815260200190815260200160002060003373ffffffffffffffffffffffffffffffffffffffff1673ffffffffffffffffffffffffffffffffffffffff168152602001908152602001600020546105ac919061110d565b600860008673ffffffffffffffffffffffffffffffffffffffff1673ffffffffffffffffffffffffffffffffffffffff16815260200190815260200160002060003373ffffffffffffffffffffffffffffffffffffffff1673ffffffffffffffffffffffffffffffffffffffff1681526020019081526020016000208190555081600760008573ffffffffffffffffffffffffffffffffffffffff1673ffffffffffffffffffffffffffffffffffffffff168152602001908152602001600020546106779190611141565b600760008573ffffffffffffffffffffffffffffffffffffffff1673ffffffffffffffffffffffffffffffffffffffff168152602001908152602001600020819055508273ffffffffffffffffffffffffffffffffffffffff168473ffffffffffffffffffffffffffffffffffffffff167fddf252ad1be2c89b69c2b068fc378daa952ba7f163c4a11628f55a4df523b3ef846040516107179190610f6b565b60405180910390a3600190509392505050565b60006012905090565b60006107d5610740610bbf565b84846001600061074e610bbf565b73ffffffffffffffffffffffffffffffffffffffff1673ffffffffffffffffffffffffffffffffffffffff16815260200190815260200160002060008873ffffffffffffffffffffffffffffffffffffffff1673ffffffffffffffffffffffffffffffffffffffff168152602001908152602001600020546107d09190611141565b610bc7565b6001905092915050565b60065481565b6000600760008373ffffffffffffffffffffffffffffffffffffffff1673ffffffffffffffffffffffffffffffffffffffff168152602001908152602001600020549050919050565b60606004805461083d906110ac565b80601f0160208091040260200160405190810160405280929190818152602001828054610869906110ac565b80156108b65780601f1061088b576101008083540402835291602001916108b6565b820191906000526020600020905b81548152906001019060200180831161089957829003601f168201915b5050505050905090565b600080600160006108cf610bbf565b73ffffffffffffffffffffffffffffffffffffffff1673ffffffffffffffffffffffffffffffffffffffff16815260200190815260200160002060008573ffffffffffffffffffffffffffffffffffffffff1673ffffffffffffffffffffffffffffffffffffffff1681526020019081526020016000205490508281101561098c576040517f08c379a000000000000000000000000000000000000000000000000000000000815260040161098390611209565b60405180910390fd5b6109a0610997610bbf565b85858403610bc7565b600191505092915050565b600081600760003373ffffffffffffffffffffffffffffffffffffffff1673ffffffffffffffffffffffffffffffffffffffff168152602001908152602001600020546109f8919061110d565b600760003373ffffffffffffffffffffffffffffffffffffffff1673ffffffffffffffffffffffffffffffffffffffff1681526020019081526020016000208190555081600760008573ffffffffffffffffffffffffffffffffffffffff1673ffffffffffffffffffffffffffffffffffffffff16815260200190815260200160002054610a869190611141565b600760008573ffffffffffffffffffffffffffffffffffffffff1673ffffffffffffffffffffffffffffffffffffffff168152602001908152602001600020819055508273ffffffffffffffffffffffffffffffffffffffff163373ffffffffffffffffffffffffffffffffffffffff167fddf252ad1be2c89b69c2b068fc378daa952ba7f163c4a11628f55a4df523b3ef84604051610b269190610f6b565b60405180910390a36001905092915050565b6000600860008473ffffffffffffffffffffffffffffffffffffffff1673ffffffffffffffffffffffffffffffffffffffff16815260200190815260200160002060008373ffffffffffffffffffffffffffffffffffffffff1673ffffffffffffffffffffffffffffffffffffffff16815260200190815260200160002054905092915050565b600033905090565b600073ffffffffffffffffffffffffffffffffffffffff168373ffffffffffffffffffffffffffffffffffffffff161415610c37576040517f08c379a0000000000000000000000000000000000000000000000000000000008152600401610c2e9061129b565b60405180910390fd5b600073ffffffffffffffffffffffffffffffffffffffff168273ffffffffffffffffffffffffffffffffffffffff161415610ca7576040517f08c379a0000000000000000000000000000000000000000000000000000000008152600401610c9e9061132d565b60405180910390fd5b80600160008573ffffffffffffffffffffffffffffffffffffffff1673ffffffffffffffffffffffffffffffffffffffff16815260200190815260200160002060008473ffffffffffffffffffffffffffffffffffffffff1673ffffffffffffffffffffffffffffffffffffffff168152602001908152602001600020819055508173ffffffffffffffffffffffffffffffffffffffff168373ffffffffffffffffffffffffffffffffffffffff167f8c5be1e5ebec7d5bd14f71427d1e84f3dd0314c0f7b2291e5b200ac8c7c3b92583604051610d859190610f6b565b60405180910390a3505050565b600081519050919050565b600082825260208201905092915050565b60005b83811015610dcc578082015181840152602081019050610db1565b83811115610ddb576000848401525b50505050565b6000601f19601f8301169050919050565b6000610dfd82610d92565b610e078185610d9d565b9350610e17818560208601610dae565b610e2081610de1565b840191505092915050565b60006020820190508181036000830152610e458184610df2565b905092915050565b600080fd5b600073ffffffffffffffffffffffffffffffffffffffff82169050919050565b6000610e7d82610e52565b9050919050565b610e8d81610e72565b8114610e9857600080fd5b50565b600081359050610eaa81610e84565b92915050565b6000819050919050565b610ec381610eb0565b8114610ece57600080fd5b50565b600081359050610ee081610eba565b92915050565b60008060408385031215610efd57610efc610e4d565b5b6000610f0b85828601610e9b565b9250506020610f1c85828601610ed1565b9150509250929050565b60008115159050919050565b610f3b81610f26565b82525050565b6000602082019050610f566000830184610f32565b92915050565b610f6581610eb0565b82525050565b6000602082019050610f806000830184610f5c565b92915050565b600080600060608486031215610f9f57610f9e610e4d565b5b6000610fad86828701610e9b565b9350506020610fbe86828701610e9b565b9250506040610fcf86828701610ed1565b9150509250925092565b600060ff82169050919050565b610fef81610fd9565b82525050565b600060208201905061100a6000830184610fe6565b92915050565b60006020828403121561102657611025610e4d565b5b600061103484828501610e9b565b91505092915050565b6000806040838503121561105457611053610e4d565b5b600061106285828601610e9b565b925050602061107385828601610e9b565b9150509250929050565b7f4e487b7100000000000000000000000000000000000000000000000000000000600052602260045260246000fd5b600060028204905060018216806110c457607f821691505b602082108114156110d8576110d761107d565b5b50919050565b7f4e487b7100000000000000000000000000000000000000000000000000000000600052601160045260246000fd5b600061111882610eb0565b915061112383610eb0565b925082821015611136576111356110de565b5b828203905092915050565b600061114c82610eb0565b915061115783610eb0565b9250827fffffffffffffffffffffffffffffffffffffffffffffffffffffffffffffffff0382111561118c5761118b6110de565b5b828201905092915050565b7f45524332303a2064656372656173656420616c6c6f77616e63652062656c6f7760008201527f207a65726f000000000000000000000000000000000000000000000000000000602082015250565b60006111f3602583610d9d565b91506111fe82611197565b604082019050919050565b60006020820190508181036000830152611222816111e6565b9050919050565b7f45524332303a20617070726f76652066726f6d20746865207a65726f2061646460008201527f7265737300000000000000000000000000000000000000000000000000000000602082015250565b6000611285602483610d9d565b915061129082611229565b604082019050919050565b600060208201905081810360008301526112b481611278565b9050919050565b7f45524332303a20617070726f766520746f20746865207a65726f20616464726560008201527f7373000000000000000000000000000000000000000000000000000000000000602082015250565b6000611317602283610d9d565b9150611322826112bb565b604082019050919050565b600060208201905081810360008301526113468161130a565b905091905056fea2646970667358221220e4fd5422c60c81678db2a2f833b3b21885371d932dda9c14c3f123b2f5fb23b764736f6c634300080b0033",
  "immutableReferences": {},
  "source": "// SPDX-License-Identifier: MIT\npragma solidity ^0.8.11;\nimport \"@openzeppelin/contracts/token/ERC20/ERC20.sol\";\n\n\ncontract Vision is ERC20 {\n    uint8  _decimalUnits;                              // divisibility of token\n    uint256 public _totalSupply;                 // total number of tokens in existence\n\n    mapping(address => uint) balances;\n    mapping(address => mapping(address => uint)) allowed;\n    address ceo = 0x0d9494732Ae5997c46B177a2165926691bd6B930; // I am using my Polygon Mumbai wallet address\n\n\n    constructor() ERC20(\"VISION\",\"VISI\") {\n        _decimalUnits = 10; \n        _totalSupply = 10000000000000; // total tokens would equal (_totalSupply/10**decimals)=1000\n\n        balances[msg.sender] = _totalSupply;\n        emit Transfer(address(0), msg.sender, _totalSupply);\n    }\n\n    function totalSupply() override public view returns (uint) {\n        return _totalSupply  - balances[address(0)];\n    }\n\n    function balanceOf(address tokenOwner) override public view returns (uint balance) {\n        return balances[tokenOwner];\n    }\n\n\n    // this function allows an address to give an allowance to another address (spender) \n    // to be able to retrieve tokens from it. \n\n    function allowance(address tokenOwner, address spender) override public view returns (uint remaining) {\n        return allowed[tokenOwner][spender];\n    }\n\n    function approve(address spender, uint tokens) override public returns (bool success) {\n        allowed[msg.sender][spender] = tokens;\n        emit Approval(msg.sender, spender, tokens);\n        return true;\n    }\n\n    function transfer(address to, uint tokens) override public returns (bool success) {\n        balances[msg.sender] = balances[msg.sender]- tokens;\n        balances[to] = balances[to] +  tokens;\n        emit Transfer(msg.sender, to, tokens);\n        return true;\n    }\n\n\n     // this function moves the amount of tokens from sender to recipient and the given amount is \n     // then deducted from the callers allowance. \n\n    function transferFrom(address from, address to, uint tokens) override public returns (bool success) {\n        balances[from] = balances[from] -  tokens;\n        allowed[from][msg.sender] = allowed[from][msg.sender] -  tokens;\n        balances[to] = balances[to] + tokens;\n        emit Transfer(from, to, tokens);\n        return true;\n    }\n\n  }",
  "sourcePath": "C:\\Users\\nada_\\OneDrive\\Desktop\\blockchain-developer-bootcamp-final-project\\contracts\\StableCoin.sol",
  "compiler": {
    "name": "solc",
    "version": "0.8.11+commit.d7f03943.Emscripten.clang"
  },
  "schemaVersion": "3.4.3",
  "updatedAt": "2022-01-15T11:52:23.268Z",
  "devdoc": {
    "kind": "dev",
    "methods": {
      "decimals()": {
        "details": "Returns the number of decimals used to get its user representation. For example, if `decimals` equals `2`, a balance of `505` tokens should be displayed to a user as `5.05` (`505 / 10 ** 2`). Tokens usually opt for a value of 18, imitating the relationship between Ether and Wei. This is the value {ERC20} uses, unless this function is overridden; NOTE: This information is only used for _display_ purposes: it in no way affects any of the arithmetic of the contract, including {IERC20-balanceOf} and {IERC20-transfer}."
      },
      "decreaseAllowance(address,uint256)": {
        "details": "Atomically decreases the allowance granted to `spender` by the caller. This is an alternative to {approve} that can be used as a mitigation for problems described in {IERC20-approve}. Emits an {Approval} event indicating the updated allowance. Requirements: - `spender` cannot be the zero address. - `spender` must have allowance for the caller of at least `subtractedValue`."
      },
      "increaseAllowance(address,uint256)": {
        "details": "Atomically increases the allowance granted to `spender` by the caller. This is an alternative to {approve} that can be used as a mitigation for problems described in {IERC20-approve}. Emits an {Approval} event indicating the updated allowance. Requirements: - `spender` cannot be the zero address."
      },
      "name()": {
        "details": "Returns the name of the token."
      },
      "symbol()": {
        "details": "Returns the symbol of the token, usually a shorter version of the name."
      },
      "totalSupply()": {
        "details": "See {IERC20-totalSupply}."
      }
    },
    "version": 1
  },
  "userdoc": {
    "kind": "user",
    "methods": {},
    "version": 1
  }
}