{
  "contractName": "MetaCoin",
  "abi": [
    {
      "inputs": [],
      "stateMutability": "nonpayable",
      "type": "constructor"
    },
    {
      "anonymous": false,
      "inputs": [
        {
          "indexed": true,
          "internalType": "address",
          "name": "_from",
          "type": "address"
        },
        {
          "indexed": true,
          "internalType": "address",
          "name": "_to",
          "type": "address"
        },
        {
          "indexed": false,
          "internalType": "uint256",
          "name": "_value",
          "type": "uint256"
        }
      ],
      "name": "Transfer",
      "type": "event"
    },
    {
      "inputs": [],
      "name": "name",
      "outputs": [
        {
          "internalType": "string",
          "name": "",
          "type": "string"
        }
      ],
      "stateMutability": "view",
      "type": "function",
      "constant": true
    },
    {
      "inputs": [
        {
          "internalType": "address",
          "name": "receiver",
          "type": "address"
        },
        {
          "internalType": "uint256",
          "name": "amount",
          "type": "uint256"
        }
      ],
      "name": "sendCoin",
      "outputs": [
        {
          "internalType": "bool",
          "name": "sufficient",
          "type": "bool"
        }
      ],
      "stateMutability": "nonpayable",
      "type": "function"
    },
    {
      "inputs": [
        {
          "internalType": "address",
          "name": "receiver",
          "type": "address"
        },
        {
          "internalType": "uint256",
          "name": "amount",
          "type": "uint256"
        }
      ],
      "name": "faucetCoin",
      "outputs": [
        {
          "internalType": "bool",
          "name": "sufficient",
          "type": "bool"
        }
      ],
      "stateMutability": "nonpayable",
      "type": "function"
    },
    {
      "inputs": [
        {
          "internalType": "address",
          "name": "addr",
          "type": "address"
        }
      ],
      "name": "getBalanceInEth",
      "outputs": [
        {
          "internalType": "uint256",
          "name": "",
          "type": "uint256"
        }
      ],
      "stateMutability": "view",
      "type": "function",
      "constant": true
    },
    {
      "inputs": [
        {
          "internalType": "address",
          "name": "addr",
          "type": "address"
        }
      ],
      "name": "getBalance",
      "outputs": [
        {
          "internalType": "uint256",
          "name": "",
          "type": "uint256"
        }
      ],
      "stateMutability": "view",
      "type": "function",
      "constant": true
    }
  ],
  "bytecode": "0x60806040526040518060400160405280600e81526020017f5465737420436f696e204e6963650000000000000000000000000000000000008152506001908051906020019061004f9291906100a7565b5034801561005c57600080fd5b506127106000803273ffffffffffffffffffffffffffffffffffffffff1673ffffffffffffffffffffffffffffffffffffffff168152602001908152602001600020819055506101ab565b8280546100b390610179565b90600052602060002090601f0160209004810192826100d5576000855561011c565b82601f106100ee57805160ff191683800117855561011c565b8280016001018555821561011c579182015b8281111561011b578251825591602001919060010190610100565b5b509050610129919061012d565b5090565b5b8082111561014657600081600090555060010161012e565b5090565b7f4e487b7100000000000000000000000000000000000000000000000000000000600052602260045260246000fd5b6000600282049050600182168061019157607f821691505b602082108114156101a5576101a461014a565b5b50919050565b6108fd806101ba6000396000f3fe608060405234801561001057600080fd5b50600436106100575760003560e01c806306fdde031461005c5780636c18bdee1461007a5780637bd703e8146100aa57806390b98a11146100da578063f8b2cb4f1461010a575b600080fd5b61006461013a565b6040516100719190610566565b60405180910390f35b610094600480360381019061008f9190610621565b6101c8565b6040516100a1919061067c565b60405180910390f35b6100c460048036038101906100bf9190610697565b61028e565b6040516100d191906106d3565b60405180910390f35b6100f460048036038101906100ef9190610621565b61031a565b604051610101919061067c565b60405180910390f35b610124600480360381019061011f9190610697565b610485565b60405161013191906106d3565b60405180910390f35b600180546101479061071d565b80601f01602080910402602001604051908101604052809291908181526020018280546101739061071d565b80156101c05780601f10610195576101008083540402835291602001916101c0565b820191906000526020600020905b8154815290600101906020018083116101a357829003601f168201915b505050505081565b6000816000803373ffffffffffffffffffffffffffffffffffffffff1673ffffffffffffffffffffffffffffffffffffffff1681526020019081526020016000206000828254610218919061077e565b925050819055508273ffffffffffffffffffffffffffffffffffffffff163373ffffffffffffffffffffffffffffffffffffffff167fddf252ad1be2c89b69c2b068fc378daa952ba7f163c4a11628f55a4df523b3ef8460405161027c91906106d3565b60405180910390a36001905092915050565b600073__ConvertLib____________________________6396e4ee3d6102b384610485565b60026040518363ffffffff1660e01b81526004016102d2929190610828565b602060405180830381865af41580156102ef573d6000803e3d6000fd5b505050506040513d601f19601f820116820180604052508101906103139190610866565b9050919050565b6000816000803373ffffffffffffffffffffffffffffffffffffffff1673ffffffffffffffffffffffffffffffffffffffff16815260200190815260200160002054101561036b576000905061047f565b816000803373ffffffffffffffffffffffffffffffffffffffff1673ffffffffffffffffffffffffffffffffffffffff16815260200190815260200160002060008282546103b99190610893565b92505081905550816000808573ffffffffffffffffffffffffffffffffffffffff1673ffffffffffffffffffffffffffffffffffffffff168152602001908152602001600020600082825461040e919061077e565b925050819055508273ffffffffffffffffffffffffffffffffffffffff163373ffffffffffffffffffffffffffffffffffffffff167fddf252ad1be2c89b69c2b068fc378daa952ba7f163c4a11628f55a4df523b3ef8460405161047291906106d3565b60405180910390a3600190505b92915050565b60008060008373ffffffffffffffffffffffffffffffffffffffff1673ffffffffffffffffffffffffffffffffffffffff168152602001908152602001600020549050919050565b600081519050919050565b600082825260208201905092915050565b60005b838110156105075780820151818401526020810190506104ec565b83811115610516576000848401525b50505050565b6000601f19601f8301169050919050565b6000610538826104cd565b61054281856104d8565b93506105528185602086016104e9565b61055b8161051c565b840191505092915050565b60006020820190508181036000830152610580818461052d565b905092915050565b600080fd5b600073ffffffffffffffffffffffffffffffffffffffff82169050919050565b60006105b88261058d565b9050919050565b6105c8816105ad565b81146105d357600080fd5b50565b6000813590506105e5816105bf565b92915050565b6000819050919050565b6105fe816105eb565b811461060957600080fd5b50565b60008135905061061b816105f5565b92915050565b6000806040838503121561063857610637610588565b5b6000610646858286016105d6565b92505060206106578582860161060c565b9150509250929050565b60008115159050919050565b61067681610661565b82525050565b6000602082019050610691600083018461066d565b92915050565b6000602082840312156106ad576106ac610588565b5b60006106bb848285016105d6565b91505092915050565b6106cd816105eb565b82525050565b60006020820190506106e860008301846106c4565b92915050565b7f4e487b7100000000000000000000000000000000000000000000000000000000600052602260045260246000fd5b6000600282049050600182168061073557607f821691505b60208210811415610749576107486106ee565b5b50919050565b7f4e487b7100000000000000000000000000000000000000000000000000000000600052601160045260246000fd5b6000610789826105eb565b9150610794836105eb565b9250827fffffffffffffffffffffffffffffffffffffffffffffffffffffffffffffffff038211156107c9576107c861074f565b5b828201905092915050565b6107dd816105eb565b82525050565b6000819050919050565b6000819050919050565b600061081261080d610808846107e3565b6107ed565b6105eb565b9050919050565b610822816107f7565b82525050565b600060408201905061083d60008301856107d4565b61084a6020830184610819565b9392505050565b600081519050610860816105f5565b92915050565b60006020828403121561087c5761087b610588565b5b600061088a84828501610851565b91505092915050565b600061089e826105eb565b91506108a9836105eb565b9250828210156108bc576108bb61074f565b5b82820390509291505056fea264697066735822122078b7065d10712e595b32d5113a6a6e9f7683ba8186c6605e57e443afac85a50d64736f6c634300080b0033",
  "immutableReferences": {},
  "source": "// SPDX-License-Identifier: MIT\npragma solidity 0.8.11;\n\nimport \"./ConvertLib.sol\";\n\n// This is just a simple example of a coin-like contract.\n// It is not standards compatible and cannot be expected to talk to other\n// coin/token contracts. If you want to create a standards-compliant\n// token, see: https://github.com/ConsenSys/Tokens. Cheers!\n\ncontract MetaCoin {\n    mapping(address => uint256) balances;\n\n    event Transfer(address indexed _from, address indexed _to, uint256 _value);\n\n    constructor() public {\n        balances[tx.origin] = 10000;\n    }\n\n    string public name = \"Test Coin Nice\";\n\n    function sendCoin(address receiver, uint256 amount)\n        public\n        returns (bool sufficient)\n    {\n        if (balances[msg.sender] < amount) return false;\n        balances[msg.sender] -= amount;\n        balances[receiver] += amount;\n        emit Transfer(msg.sender, receiver, amount);\n        return true;\n    }\n\n    function faucetCoin(address receiver, uint256 amount)\n        public\n        returns (bool sufficient)\n    {\n        balances[msg.sender] += amount;\n        emit Transfer(msg.sender, receiver, amount);\n        return true;\n    }\n\n    function getBalanceInEth(address addr) public view returns (uint256) {\n        return ConvertLib.convert(getBalance(addr), 2);\n    }\n\n    function getBalance(address addr) public view returns (uint256) {\n        return balances[addr];\n    }\n}\n",
  "sourcePath": "C:\\Users\\nada_\\OneDrive\\Desktop\\ethereum-boilerplate-main\\Truffle\\contracts\\MetaCoin.sol",
  "compiler": {
    "name": "solc",
    "version": "0.8.11+commit.d7f03943.Emscripten.clang"
  },
  "schemaVersion": "3.4.3",
  "updatedAt": "2022-01-11T22:31:07.874Z",
  "networkType": "ethereum",
  "devdoc": {
    "kind": "dev",
    "methods": {},
    "version": 1
  },
  "userdoc": {
    "kind": "user",
    "methods": {},
    "version": 1
  }
}